:020000040800F2
:1000000010080020DD020008390300083903000849
:100010003903000839030008390300080000000014
:10002000000000000000000000000000390300088C
:1000300039030008000000003903000839030008F4
:1000400039030008390300083903000839030008A0
:100050003903000839030008C90300083903000800
:100060003903000839030008390300083903000880
:100070003903000839030008390300083903000870
:100080003903000839030008390300083903000860
:100090003903000839030008390300083903000850
:1000A0003903000839030008390300083903000840
:1000B0003903000839030008390300083903000830
:1000C0003903000839030008390300083903000820
:1000D0003903000839030008390300083903000810
:1000E0003903000839030008390300083903000800
:1000F00039030008390300083903000839030008F0
:1001000039030008390300083903000839030008DF
:1001100039030008390300083903000839030008CF
:1001200039030008390300083903000839030008BF
:1001300039030008390300083903000839030008AF
:10014000390300083903000839030008390300089F
:10015000390300083903000839030008390300088F
:10016000390300083903000839030008390300087F
:10017000390300083903000839030008390300086F
:10018000390300083903000880B400AF034B012293
:100190001A6000BFBD4680BC704700BF0000002051
:1001A00080B500AF094B1B68012B04D14FF400410F
:1001B000074800F0EBF8054B1B68022B04D14FF405
:1001C0000041044800F0E2F800BF80BD00000020BC
:1001D00040420F00E86E030080B400AF074B1B687D
:1001E000022B03D1054B01221A6002E0034B0222CD
:1001F0001A6000BFBD4680BC704700BF00000020F1
:1002000080B485B000AF78600023FB6002E0FB683B
:100210000133FB60FB687A689A42F8D800BF143754
:10022000BD4680BC7047000080B584B000AF01219E
:10023000082000F08DF8264B4FF400421A60244B42
:1002400001221A71224B02225A71214B00229A710B
:100250001F4B0022DA711E491E4800F0D1F801211F
:10026000012000F075F81A4B01221A60184B002289
:100270001A71174B02225A71154B00229A71144BB6
:100280000222DA711249144800F0BAF800233B73D5
:1002900008237B730123BB600123BB7307F10803B1
:1002A000184600F06FF906233B7101237B7101238F
:1002B000BB710123FB713B1D184600F007FA4FF498
:1002C0000041044800F050F900BF1037BD4680BD22
:1002D00004000020000C02400000024080B582B003
:1002E00000AF104B7B60104B3B6007E07A68131D3A
:1002F0007B603B68191D396012681A603B680B4AC5
:100300009342F3D30A480B494FF000028842B8BF2A
:1003100040F8042BFADB00F012F800BF0837BD46A6
:1003200080BD00BF900700080000002000000020F2
:10033000000000200C00002080B400AFFEE780B574
:1003400000AFFFF771FFFFF71FFFFFF729FFFCE783
:1003500080B483B000AF78600B46FB70FB78002B55
:1003600006D0094B1A6B08497B6813430B6306E000
:10037000054B1A6B7B68DB43034913400B6300BFDB
:100380000C37BD4680BC70470038024080B582B053
:1003900000AF786039603B689BB21946094800F0AD
:1003A000D5F87868FFF72CFF3B689BB219460548E3
:1003B00000F0DAF87868FFF723FF00BF0837BD4682
:1003C00080BD00BF000C024080B500AF012000F0EE
:1003D0004BF90346002B0FD042F21070FFF710FFCD
:1003E0000121064800F099F80346012B01D1FFF7DF
:1003F000F3FE012000F05CF900BF80BD0000024068
:1004000080B487B000AF7860396000237B6100233F
:100410003B610023FB6000237B6176E001227B6966
:1004200002FA03F33B613B681B683A691340FB60C7
:10043000FA683B699A4265D17B681A687B695B0000
:10044000032101FA03F3DB431A407B681A607B68DF
:100450001A683B681B7919467B695B0001FA03F354
:100460001A437B681A603B681B79012B03D03B68F9
:100470001B79022B2ED17B689A687B695B00032174
:1004800001FA03F3DB431A407B689A607B689A6841
:100490003B685B7919467B695B0001FA03F31A43F9
:1004A0007B689A607B685A687B699BB21946012316
:1004B0008B40DB431A407B685A607B685B683A6814
:1004C000927911467A6992B201FA02F292B21A4313
:1004D0007B685A607B68DA687B699BB25B000321AA
:1004E00001FA03F3DB431A407B68DA607B68DA6861
:1004F0003B68DB7919467B695B0001FA03F31A4319
:100500007B68DA607B6901337B617B690F2B85D95E
:1005100000BF1C37BD4680BC704780B485B000AFBB
:1005200078600B467B800023FB737B681A697B88AD
:100530001340002B02D00123FB7301E00023FB7367
:10054000FB7B18461437BD4680BC704780B483B02F
:1005500000AF78600B467B807B687A881A8300BF87
:100560000C37BD4680BC704780B483B000AF786064
:100570000B467B807B687A885A8300BF0C37BD4668
:1005800080BC704780B485B000AF78600023FB600A
:10059000344BFB607B689B79002B4FD0314B1A6842
:1005A0007B681B68DB432F4913400B602D4B5A6857
:1005B0007B681B68DB432B4913404B607B681B79CE
:1005C0001A46FB681344FB60FB6819687B681A686D
:1005D000FB680A431A60234B9A687B681B68DB43FD
:1005E000204913408B601F4BDA687B681B68DB4334
:1005F0001C491340CB607B685B79102B0ED1194BE3
:100600009A687B681B68174913438B60154BDA683F
:100610007B681B6813491343CB601DE0114BFB60E3
:100620007B685B791A46FB681344FB60FB681968BA
:100630007B681A68FB680A431A600DE07B681B79C7
:100640001A46FB681344FB60FB6819687B681B68EB
:10065000DA43FB680A401A6000BF1437BD4680BC0D
:10066000704700BF003C014080B485B000AF7860A7
:100670000023FB730023BB600C4B1B687A6813409C
:10068000BB600A4B5A697B681340002B05D0BB68DE
:10069000002B02D00123FB7301E00023FB73FB7BE3
:1006A00018461437BD4680BC704700BF003C01406F
:1006B00080B483B000AF7860034A7B68536100BFA9
:1006C0000C37BD4680BC7047003C014080B485B00B
:1006D00000AF78600023FB730023BB730F237B7391
:1006E0007B68DB78002B39D0274BDB68DB431B0AA8
:1006F000DBB203F00703FB73FB7BC3F10403BB73A3
:100700007A7BFB7B42FA03F37B737B685B781A4648
:10071000BB7B02FA03F3FB737B689A787B7B134005
:10072000DAB2FB7B1343FB73FB7B1B01FB73174AA2
:100730007B681B781344FA7B83F800237B681B7863
:1007400003F01F0311497A6812785209D2B2104699
:10075000012202FA03F341F820300FE07B681B7896
:1007600003F01F0309497A6812785209D2B2104681
:1007700001229A4000F1200341F8232000BF1437E2
:10078000BD4680BC704700BF00ED00E000E100E026
:0400000508000000EF
:00000001FF
