:020000040800F2
:1000000038080020010400085D0400085D040008B1
:100010005D0400085D0400085D04000800000000A5
:100020000000000000000000000000005D04000867
:100030005D040008000000005D0400085D04000885
:100040005D0400085D0400085D0400085D0400080C
:100050005D0400085D0400085D0400085D040008FC
:100060005D0400085D0400085D0400085D040008EC
:100070005D0400085D0400085D0400085D040008DC
:100080005D0400085D0400085D0400085D040008CC
:100090005D0400085D0400085D0400085D040008BC
:1000A0005D0400085D0400085D0400085D040008AC
:1000B0005D040008E5080008450500085D04000827
:1000C0005D0400085D0400085D0400085D0400088C
:1000D0005D0400085D0400085D0400085D0400087C
:1000E0005D0400085D0400085D0400085D0400086C
:1000F0005D0400085D0400085D0400085D0400085C
:100100005D0400085D0400085D0400085D0400084B
:100110005D0400085D0400085D0400085D0400083B
:100120005D0400085D0400085D0400085D0400082B
:100130005D0400085D0400085D0400085D0400081B
:100140005D0400085D0400085D0400085D0400080B
:100150005D0400085D0400085D0400085D040008FB
:100160005D0400085D0400085D0400085D040008EB
:100170005D0400085D0400085D0400085D040008DB
:100180005D0400085D04000880B400AF024B1B68EA
:100190001846BD4680BC70472C00002080B483B058
:1001A00000AF7860034A7B68136000BF0C37BD4620
:1001B00080BC70472C00002080B400AF024B5B680D
:1001C0001846BD4680BC70472C00002080B483B028
:1001D00000AF7860034A7B68536000BF0C37BD46B0
:1001E00080BC70472C00002080B400AF024B9B689D
:1001F0001846BD4680BC70472C00002080B483B0F8
:1002000000AF7860034A7B68936000BF0C37BD463F
:1002100080BC70472C00002080B400AF024B184611
:10022000BD4680BC704700BF0000002080B483B092
:1002300000AF7860034B1B687B6000BF0C37BD4686
:1002400080BC70470000002080B400AF024B18460D
:10025000BD4680BC704700BF1000002080B483B052
:1002600000AF7860034B1B687B6000BF0C37BD4656
:1002700080BC70471000002080B483B000AF78606D
:10028000034A7B68136000BF0C37BD4680BC7047D3
:100290002000002080B582B000AF0121082000F0CE
:1002A00015F94FF470433B6001233B713B461946FF
:1002B000054800F094F93B46184600F01DFA00BFCF
:1002C0000837BD4680BD00BF000C024080B582B03B
:1002D00000AF0121012000F0F9F801233B60002369
:1002E0003B713B461946034800F079F900BF0837D7
:1002F000BD4680BD0000024080B582B000AF1D2326
:100300003B7101237B710123BB710123FB713B1DF9
:10031000184600F08FFB00BF0837BD4680BD80B592
:1003200082B000AF1E233B7102237B710123BB719E
:100330000123FB713B1D184600F07CFB00BF083712
:10034000BD4680BD80B584B000AF0121022000F021
:10035000DBF83B1D184600F039FC0E4B1B68013BD7
:10036000BB6041F26F73BB800023BB810023FB8025
:100370003B1D1946084800F0BFFB01220121064839
:1003800000F05CFC0121044800F039FC00BF10378C
:10039000BD4680BD280000200004004080B584B028
:1003A00000AF0121042000F0AFF83B1D184600F01B
:1003B0000DFC104B1B68013BBB600F4B1B689BB2D5
:1003C000013B9BB2BB800023BB810023FB803B1D14
:1003D00019460A4800F090FB01220121074800F06D
:1003E0002DFC0121054800F00AFC00BF1037BD4676
:1003F00080BD00BF20000020240000200008004035
:1004000080B582B000AF104B7B60104B3B6007E0C3
:100410007A68131D7B603B68191D396012681A6089
:100420003B680B4A9342F3D30A480B494FF0000252
:100430008842B8BF40F8042BFADB00F013F800BF85
:100440000837BD4680BD00BF140D00080000002025
:100450002C0000202C0000203800002080B400AFC9
:10046000FEE7000090B589B000AF00F093F9154B9E
:1004700007F110040FCB84E80F00134B3C460FCB61
:1004800084E80F000020FFF789FE0120FFF79EFEA1
:1004900007F110031846FFF7C9FE3B461846FFF761
:1004A000DDFE0020FFF7AAFEFFF7F4FEFFF70EFFC8
:1004B000FFF748FFFFF772FFFFF71EFFFFF72FFF61
:1004C000FEE700BFF40C0008040D000880B483B000
:1004D00000AF78600B46FB70FB78002B06D0094B11
:1004E0001A6B08497B6813430B6306E0054B1A6BD4
:1004F0007B68DB43034913400B6300BF0C37BD46E9
:1005000080BC70470038024080B483B000AF786090
:100510000B46FB70FB78002B06D0094B1A6C084980
:100520007B6813430B6406E0054B1A6C7B68DB4366
:10053000034913400B6400BF0C37BD4680BC7047B5
:100540000038024080B582B000AF0121124800F0AF
:1005500098FB0346002B1AD001210F4800F0BAFB8C
:1005600000F0FEF9FFF710FE7860FFF755FE3860E7
:100570003B680C331B687A689A4202D14FF0FF3314
:100580007B607B6801337B607868FFF707FE00BF04
:100590000837BD4680BD00BF0008004080B582B06E
:1005A00000AFFFF709FE78607B68012B08D10223BA
:1005B0007B604FF47070FFF75FFEFFF7EFFE07E020
:1005C00001237B604FF4F070FFF756FEFFF7E6FE65
:1005D0007868FFF7FBFD00BF0837BD4680BD80B4DB
:1005E00087B000AF7860396000237B6100233B61F6
:1005F0000023FB6000237B6176E001227B6902FA25
:1006000003F33B613B681B683A691340FB60FA687F
:100610003B699A4265D17B681A687B695B0003215C
:1006200001FA03F3DB431A407B681A607B681A689F
:100630003B681B7919467B695B0001FA03F31A4397
:100640007B681A603B681B79012B03D03B681B79E0
:10065000022B2ED17B689A687B695B00032101FA2B
:1006600003F3DB431A407B689A607B689A683B68B7
:100670005B7919467B695B0001FA03F31A437B68D7
:100680009A607B685A687B699BB2194601238B404C
:10069000DB431A407B685A607B685B683A689279F2
:1006A00011467A6992B201FA02F292B21A437B6859
:1006B0005A607B68DA687B699BB25B00032101FAB0
:1006C00003F3DB431A407B68DA607B68DA683B68D7
:1006D000DB7919467B695B0001FA03F31A437B68F7
:1006E000DA607B6901337B617B690F2B85D900BFA1
:1006F0001C37BD4680BC704780B483B000AF7860C3
:100700007B684FF6FF721A607B6800221A717B6863
:1007100000225A717B6800229A717B680022DA718C
:1007200000BF0C37BD4680BC704780B485B000AFB9
:1007300078600B467B800023FB737B681A697B889B
:100740001340002B02D00123FB7301E00023FB7355
:10075000FB7B18461437BD4680BC704780B483B01D
:1007600000AF78600B467B807B687A881A8300BF75
:100770000C37BD4680BC704780B483B000AF786052
:100780000B467B807B687A885A8300BF0C37BD4656
:1007900080BC704780B500AF124B1B68114A43F014
:1007A000010313600F4B00229A600E4B1B680D4A29
:1007B00023F0847323F4803313600A4B0A4A5A608F
:1007C000084B1B68074A23F480231360054B002263
:1007D000DA6000F00DF8054B4FF000629A6000BF40
:1007E00080BD00BF003802401030002400ED00E062
:1007F00080B483B000AF00237B6000233B60354BA7
:100800001B68344A43F480331360324B1B6803F493
:1008100000333B607B6801337B603B68002B03D176
:100820007B68B3F5A06FF0D12A4B1B6803F400334B
:10083000002B02D001233B6001E000233B603B68BA
:10084000012B42D1234B1B6C224A43F0805313648B
:10085000214B1B68204A43F4804313601D4B1D4A03
:100860009B6893601B4B9B681A4A43F40043936058
:10087000184B9B68174A43F480539360154B174AF3
:100880005A60144B1B68134A43F08073136000BF17
:10089000104B1B6803F00073002BF9D0104B40F293
:1008A00001621A600B4B9B680A4A23F003039360B2
:1008B000084B9B68074A43F00203936000BF054B57
:1008C0009B6803F00C03082BF9D100BF0C37BD4621
:1008D00080BC70470038024000700040083041087A
:1008E000003C024080B582B000AF0121194800F001
:1008F000C8F90346002B28D00121164800F0EAF978
:10090000FFF772FC786001211348FFF70EFF0346E2
:10091000002B17D07B6801337B607868FFF76EFC93
:100920007B68082B02D1FFF739FE0EE07B68082BAD
:100930000BDD4FF470410948FFF710FF0920FFF766
:100940005DFC02E00020FFF759FC00BF0837BD4600
:1009500080BD00BF0004004000000240000C0240C7
:1009600080B584B000AFFFF70FFCF860FFF754FCD0
:10097000B860FFF769FC7860FB68002B06D17B68E4
:100980001B689BB219462A48FFF7E8FEBB681B6844
:10099000FA689A420ED17B681B689BB219462448BC
:1009A000FFF7EAFE7B6804331B689BB219462048B8
:1009B000FFF7D4FEBB6804331B68FA689A420FD174
:1009C0007B6804331B689BB219461948FFF7D4FEB5
:1009D0007B6808331B689BB219461548FFF7BEFEBB
:1009E000BB6808331B68FA689A420FD17B680833EA
:1009F0001B689BB219460E48FFF7BEFE7B680C339E
:100A00001B689BB219460A48FFF7A8FEBB680C3367
:100A10001B68FA689A4207D17B680C331B689BB24B
:100A200019460348FFF7A8FE00BF1037BD4680BD3A
:100A3000000C024080B485B000AF78600023FB73E7
:100A40000023BB730F237B737B68DB78002B39D0CB
:100A5000274BDB68DB431B0ADBB203F00703FB73A6
:100A6000FB7BC3F10403BB737A7BFB7B42FA03F38A
:100A70007B737B685B781A46BB7B02FA03F3FB73DC
:100A80007B689A787B7B1340DAB2FB7B1343FB7362
:100A9000FB7B1B01FB73174A7B681B781344FA7BB3
:100AA00083F800237B681B7803F01F0311497A68E1
:100AB00012785209D2B21046012202FA03F341F829
:100AC00020300FE07B681B7803F01F0309497A6828
:100AD00012785209D2B2104601229A4000F1200346
:100AE00041F8232000BF1437BD4680BC704700BFCB
:100AF00000ED00E000E100E080B485B000AF786078
:100B000039600023FB817B681B88FB817B68284A56
:100B1000934213D07B68274A93420FD07B68B3F18E
:100B2000804F0BD07B68244A934207D07B68234ACE
:100B3000934203D07B68224A934208D1FB8923F079
:100B40007003FB813B685A88FB891343FB817B68F8
:100B50001C4A93420CD07B681B4A934208D0FB8905
:100B600023F44073FB813B681A89FB891343FB81A3
:100B70007B68FA891A803B685A687B68DA623B684E
:100B80001A887B681A857B68094A934203D07B6880
:100B9000084A934204D13B689B7A9AB27B681A86D2
:100BA0007B6801229A8200BF1437BD4680BC704723
:100BB0000000014000040140000400400008004023
:100BC000000C0040001000400014004080B483B0CE
:100BD00000AF78607B684FF0FF325A607B6800227C
:100BE0001A807B6800221A817B6800225A807B6809
:100BF00000229A7200BF0C37BD4680BC704780B49B
:100C000083B000AF78600B46FB70FB78002B08D0F8
:100C10007B681B889BB243F001039AB27B681A8001
:100C200007E07B681B889BB223F001039AB27B68C4
:100C30001A8000BF0C37BD4680BC704780B483B0BB
:100C400000AF78600B467B8013467B707B78002B6F
:100C500008D07B689B899AB27B8813439AB27B68E1
:100C60009A8109E07B689B899AB27B88DB439BB2BF
:100C700013409AB27B689A8100BF0C37BD4680BC96
:100C8000704780B485B000AF78600B467B8000234E
:100C9000FB730023BB8100237B817B681B8A9AB294
:100CA0007B881340BB817B689B899AB27B88134009
:100CB0007B81BB89002B05D07B89002B02D00123CF
:100CC000FB7301E00023FB73FB7B18461437BD4622
:100CD00080BC704780B483B000AF78600B467B80E7
:100CE0007B88DB439AB27B681A8200BF0C37BD4613
:100CF00080BC7047010000000200000003000000FB
:100D0000040000000010000000200000004000006F
:040D1000008000005F
:100D140001000000020000000300000004000000C5
:100D240000100000002000000040000000800000CF
:0C0D3400E0010000102700000500000096
:0400000508000000EF
:00000001FF
